:100000000C945D000C9485000C9485000C94850084
:100010000C9485000C9485000C9485000C9485004C
:100020000C9485000C9485000C9485000C9485003C
:100030000C9485000C9485000C9485000C9485002C
:100040000C94FF020C9485000C94CD020C94A70232
:100050000C9485000C9485000C9485000C9485000C
:100060000C9485000C9485000000000024002700FB
:100070002A0000000000250028002B0004040404CE
:100080000404040402020202020203030303030342
:10009000010204081020408001020408102001021F
:1000A00004081020000000080002010000030407FB
:1000B00000000000000000004D0411241FBECFEF1F
:1000C000D8E0DEBFCDBF11E0A0E0B1E0E4E0F9E0B0
:1000D00002C005900D92AA31B107D9F721E0AAE13B
:1000E000B1E001C01D92A03CB207E1F710E0CDE500
:1000F000D0E004C02197FE010E947A04CC35D107DC
:10010000C9F70E9449030C9480040C940000AF923C
:10011000BF92CF92DF92EF92FF920F931F93CF93F4
:10012000DF936C017B018B01040F151FEB015E0156
:10013000AE18BF08C017D10759F06991D601ED91EB
:10014000FC910190F081E02DC6010995892B79F78A
:10015000C501DF91CF911F910F91FF90EF90DF903C
:10016000CF90BF90AF900895FC01538D448D252F03
:1001700030E0842F90E0821B930B541710F0CF9641
:10018000089501970895FC01918D828D981761F073
:10019000A28DAE0FBF2FB11D5D968C91928D9F5F8A
:1001A0009F73928F90E008958FEF9FEF0895FC0169
:1001B000918D828D981731F0828DE80FF11D858D1C
:1001C00090E008958FEF9FEF0895FC01918D228DAF
:1001D000892F90E0805C9F4F821B91098F73992734
:1001E000089583E291E00E94E50021E0892B09F463
:1001F00020E0822F089580E090E0892B29F00E9472
:10020000F10081110C9400000895FC01A48DA80F49
:10021000B92FB11DA35ABF4F2C91848D90E0019648
:100220008F739927848FA689B7892C93A089B18968
:100230008C91837080648C93938D848D981306C009
:100240000288F389E02D80818F7D80830895EF926D
:10025000FF920F931F93CF93DF93EC0181E0888F80
:100260009B8D8C8D98131AC0E889F989808185FF50
:1002700015C09FB7F894EE89FF896083E889F989F2
:1002800080818370806480839FBF81E090E0DF91F4
:10029000CF911F910F91FF90EF900895F62E0B8D47
:1002A00010E00F5F1F4F0F731127E02E8C8D8E1102
:1002B0000CC00FB607FCFACFE889F989808185FF69
:1002C000F5CFCE010E940501F1CFEB8DEC0FFD2F94
:1002D000F11DE35AFF4FF0829FB7F8940B8FEA8924
:1002E000FB8980818062CFCFCF93DF93EC01888D33
:1002F0008823B9F0AA89BB89E889F9898C9185FDA1
:1003000003C0808186FD0DC00FB607FCF7CF8C912E
:1003100085FFF2CF808185FFEDCFCE010E940501E0
:10032000E9CFDF91CF91089590E0FC01EC55FF4FAC
:100330002491FC01E057FF4F3491FC01E458FF4F3A
:10034000E491EE23C9F0222339F0233001F1A8F41F
:10035000213019F1223029F1F0E0EE0FFF1FEE58A5
:10036000FF4FA591B4918FB7F894EC91611126C01D
:1003700030953E233C938FBF08952730A9F0283055
:10038000C9F0243049F7809180008F7D03C08091AF
:1003900080008F7780938000DFCF84B58F7784BD16
:1003A000DBCF84B58F7DFBCF8091B0008F778093BA
:1003B000B000D2CF8091B0008F7DF9CF3E2BDACF45
:1003C000482F50E0FA01E057FF4F9491FA01E458AA
:1003D000FF4F2491222399F030E0220F331FF901BF
:1003E000E859FF4FA591B491F901EE58FF4F2591BF
:1003F00034912FB7F894EC91E92BEC932FBF611552
:10040000710519F460E00C9494016F3F710511F4CB
:1004100061E0F9CFFA01EC55FF4FE491E33019F1B7
:1004200040F4E130B1F0E230C9F06038710584F792
:10043000E9CFE73011F1E83041F1E430B1F78091D4
:10044000800080628093800070938B0060938A00AC
:10045000089584B5806884BD67BD089584B58062C1
:1004600084BD68BD0895809180008068809380007D
:10047000709389006093880008958091B00080682F
:100480008093B0006093B30008958091B0008062C3
:100490008093B0006093B40008953FB7F8948091C2
:1004A0001F0190912001A0912101B091220126B558
:1004B000A89B05C02F3F19F00196A11DB11D3FBF9C
:1004C000BA2FA92F982F8827BC01CD01620F711D6B
:1004D000811D911D42E0660F771F881F991F4A9565
:1004E000D1F708958F929F92AF92BF92CF92DF92F1
:1004F000EF92FF920E944D024B015C018AE0C82EF0
:10050000D12CE12CF12C0E944D02681979098A093D
:100510009B09683E734081059105A8F321E0C21A4A
:10052000D108E108F10888EE880E83E0981EA11C2E
:10053000B11CC114D104E104F10429F7FF90EF903C
:10054000DF90CF90BF90AF909F908F9008951F92B3
:100550000F920FB60F9211242F933F934F935F93F7
:100560006F937F938F939F93AF93BF93EF93FF937B
:1005700083E291E00E940501FF91EF91BF91AF915D
:100580009F918F917F916F915F914F913F912F91AB
:100590000F900FBE0F901F9018951F920F920FB6DD
:1005A0000F9211242F938F939F93EF93FF93E091DA
:1005B0003301F09134018081E0913901F0913A01E9
:1005C00082FD1BC0908180913C018F5F8F732091D1
:1005D0003D01821741F0E0913C01F0E0ED5DFE4FFE
:1005E000958F80933C01FF91EF919F918F912F9177
:1005F0000F900FBE0F901F9018958081F4CF1F921F
:100600000F920FB60F9211242F933F938F939F93C6
:10061000AF93BF9380911B0190911C01A0911D018C
:10062000B0911E0130911A0123E0230F2D3758F5A8
:100630000196A11DB11D20931A0180931B01909377
:100640001C01A0931D01B0931E0180911F01909188
:100650002001A0912101B09122010196A11DB11D9F
:1006600080931F0190932001A0932101B093220158
:10067000BF91AF919F918F913F912F910F900FBE9E
:100680000F901F90189526E8230F0296A11DB11D0B
:10069000D2CF789484B5826084BD84B5816084BDF6
:1006A00085B5826085BD85B5816085BD80916E0010
:1006B000816080936E001092810080918100826041
:1006C000809381008091810081608093810080917E
:1006D00080008160809380008091B100846080936D
:1006E000B1008091B00081608093B00080917A0069
:1006F000846080937A0080917A00826080937A008F
:1007000080917A00816080937A0080917A0080687D
:1007100080937A001092C100E0913301F09134018E
:1007200082E08083E0912F01F09130011082E0910E
:100730003101F09132018FEC808310923B01E09106
:100740003701F091380186E08083E0913501F09126
:100750003601808180618083E0913501F09136011E
:10076000808188608083E0913501F091360180813D
:1007700080688083E0913501F091360180818F7D22
:1007800080830AE111E08AE0E82E81E0F82E90E013
:10079000C92E90E0D92E83E291E00E94E500181660
:1007A0001906A4F583E291E00E94C3008136910509
:1007B00069F5C2E1D1E0B12CA12CB50188810E947C
:1007C000E0010E94720285E0A80EB11C84E0A81628
:1007D00081E0B80691F722960C171D0761F7CFEF5D
:1007E000D0E0BE0186E00E94E001BE0189E00E94E7
:1007F000E001BE018AE00E94E001BE018BE00E94A0
:10080000E0012597CB3F8FEFD80759F783E291E0BE
:100810000E94E50018161906A4F583E291E00E94F3
:10082000C3008236910569F5C2E1D1E0B12CA12C5B
:10083000B5018E810E94E0010E94720285E0A80E3F
:10084000B11C84E0A81681E0B80691F72297EC1657
:10085000FD0661F7CFEFD0E0BE0186E00E94E00127
:10086000BE0189E00E94E001BE018AE00E94E00131
:10087000BE018BE00E94E0012597CB3F8FEFD807A8
:1008800059F7C114D10409F486CF0E94F1008823DE
:1008900009F481CF0E9400007ECFE3E2F1E01382F1
:1008A000128288EE93E0A0E0B0E084839583A68373
:1008B000B78384E091E09183808385EC90E0958715
:1008C000848784EC90E09787868780EC90E0918B1A
:1008D000808B81EC90E0938B828B82EC90E0958B07
:1008E000848B86EC90E0978B868B118E128E138E04
:1008F000148E0895EE0FFF1F0590F491E02D0994DA
:04090000F894FFCF99
:100904000000000027018700B4007401E500C30063
:0A091400D700060009000A000B00DE
:00000001FF
